:10000000D8450120A5D50100375E06005DD5010069
:100010005DD501005DD501005DD501005DD5010014
:1000200000000000000000000000000021C20100EC
:100030005DD501000000000075C101005DD5010023
:10004000CDC20100CDC20100CDC20100CDC2010070
:10005000CDC20100CDC20100CDC20100CDC2010060
:10006000CDC20100CDC20100CDC20100CDC2010050
:10007000CDC20100CDC20100CDC20100CDC2010040
:10008000CDC20100CDC20100CDC20100CDC2010030
:10009000CDC20100CDC20100CDC20100CDC2010020
:1000A000CDC20100CDC20100CDC20100CDC2010010
:1000B000CDC20100CDC20100CDC20100CDC2010000
:1000C000CDC20100CDC20100CDC20100CDC20100F0
:1000D000CDC20100CDC20100CDC20100CDC20100E0
:1000E000CDC20100CDC20100CDC20100CDC20100D0
:1000F000CDC20100CDC20100CDC20100CDC20100C0
:10010000CDC20100CDC20100CDC20100CDC20100AF
:10011000CDC20100CDC20100CDC20100CDC201009F
:10012000CDC20100CDC20100CDC20100CDC201008F
:10013000CDC20100CDC20100CDC20100CDC201007F
:10014000CDC20100CDC20100CDC20100CDC201006F
:04015000CDC201001B
:04015400FFFFFFFFAB
:1001580081F0004102E000BF83F0004330B54FEA70
:1001680041044FEA430594EA050F08BF90EA020FDD
:100178001FBF54EA000C55EA020C7FEA645C7FEA70
:10018800655C00F0E2804FEA5454D4EB5555B8BF93
:100198006D420CDD2C4480EA020281EA030382EA04
:1001A800000083EA010180EA020281EA0303362D96
:1001B80088BF30BD11F0004F4FEA01314FF4801C69
:1001C8004CEA113102D0404261EB410113F0004F7B
:1001D8004FEA03334CEA133302D0524263EB430332
:1001E80094EA050F00F0A780A4F10104D5F1200ED0
:1001F8000DDB02FA0EFC22FA05F2801841F100012B
:1002080003FA0EF2801843FA05F359410EE0A5F1FE
:1002180020050EF1200E012A03FA0EFC28BF4CF02F
:10022800020C43FA05F3C01851EBE37101F00045E5
:1002380007D54FF0000EDCF1000C7EEB00006EEBF2
:100248000101B1F5801F1BD3B1F5001F0CD349087C
:100258005FEA30004FEA3C0C04F101044FEA4452D3
:1002680012F5800F80F09A80BCF1004F08BF5FEA5A
:10027800500C50F1000041EB045141EA050130BD3A
:100288005FEA4C0C404141EB0101013C28BFB1F54C
:10029800801FE9D291F0000F04BF01460020B1FA97
:1002A80081F308BF2033A3F10B03B3F120020CDA6A
:1002B8000C3208DD02F1140CC2F10C0201FA0CF048
:1002C80021FA02F10CE002F11402D8BFC2F1200CAD
:1002D80001FA02F120FA0CFCDCBF41EA0C01904063
:1002E800E41AA2BF01EB0451294330BD6FEA0404AC
:1002F8001F3C1CDA0C340EDC04F11404C4F1200297
:1003080020FA04F001FA02F340EA030021FA04F3A8
:1003180045EA030130BDC4F10C04C4F1200220FAFF
:1003280002F001FA04F340EA0300294630BD21FA3D
:1003380004F0294630BD94F0000F83F4801306BF03
:1003480081F480110134013D4EE77FEA645C18BFF7
:100358007FEA655C29D094EA050F08BF90EA020F8E
:1003680005D054EA000C04BF1946104630BD91EA86
:10037800030F1EBF0021002030BD5FEA545C05D189
:100388004000494128BF41F0004130BD14F58004C8
:100398003CBF01F5801130BD01F0004545F0FE413C
:1003A80041F470014FF0000030BD7FEA645C1ABF71
:1003B800194610467FEA655C1CBF0B46024650EAA8
:1003C800013406BF52EA033591EA030F41F40021D4
:1003D80030BD00BF90F0000F04BF0021704730B55A
:1003E8004FF4806404F132044FF000054FF000012F
:1003F80050E700BF90F0000F04BF0021704730B5F0
:100408004FF4806404F1320410F0004548BF4042C4
:100418004FF000013EE700BF42004FEAE2014FEA19
:1004280031014FEA02701FBF12F07F4393F07F4FF4
:1004380081F06051704732F07F4208BF704793F0F7
:100448007F4F04BF41F40021704730B54FF460740A
:1004580001F0004521F000411CE700BF50EA01020D
:1004680008BF704730B54FF000050AE050EA0102B6
:1004780008BF704730B511F0004502D5404261EB26
:1004880041014FF4806404F132045FEA915C3FF467
:10049800D8AE4FF003025FEADC0C18BF03325FEA04
:1004A800DC0C18BF033202EBDC02C2F1200300FAB5
:1004B80003FC20FA02F001FA03FE40EA0E0021FADA
:1004C80002F11444BDE600BF70B54FF0FF0C4CF4C8
:1004D800E06C1CEA11541DBF1CEA135594EA0C0F7A
:1004E80095EA0C0F00F0DEF82C4481EA030621EAB5
:1004F8004C5123EA4C5350EA013518BF52EA0335F0
:1005080041F4801143F4801338D0A0FB02CE4FF0A1
:100518000005E1FB02E506F00042E0FB03E54FF0D1
:100528000006E1FB03569CF0000F18BF4EF0010EC9
:10053800A4F1FF04B6F5007F64F5407404D25FEAC5
:100548004E0E6D4146EB060642EAC62141EA555178
:100558004FEAC52040EA5E504FEACE2EB4F1FD0CBA
:1005680088BFBCF5E06F1ED8BEF1004F08BF5FEA38
:10057800500E50F1000041EB045170BD06F00046EA
:1005880046EA010140EA020081EA0301B4EB5C0497
:10059800C2BFD4EB0C0541EA045170BD41F480118F
:1005A8004FF0000E013C00F3AB8014F1360FDEBFB4
:1005B800002001F0004170BDC4F10004203C35DA90
:1005C8000C341BDC04F11404C4F1200500FA05F313
:1005D80020FA04F001FA05F240EA020001F00042B4
:1005E80021F0004110EBD37021FA04F642EB06012A
:1005F8005EEA430E08BF20EAD37070BDC4F10C0454
:10060800C4F1200500FA04F320FA05F001FA04F217
:1006180040EA020001F0004110EBD37041F1000103
:100628005EEA430E08BF20EAD37070BDC4F120050E
:1006380000FA05F24EEA020E20FA04F301FA05F276
:1006480043EA020321FA04F001F0004121FA04F21E
:1006580020EA020000EBD3705EEA430E08BF20EAEE
:10066800D37070BD94F0000F0FD101F00046400028
:1006780041EB010111F4801F08BF013CF7D041EAAA
:10068800060195F0000F18BF704703F000465200AE
:1006980043EB030313F4801F08BF013DF7D043EA7F
:1006A8000603704794EA0C0F0CEA135518BF95EA35
:1006B8000C0F0CD050EA410618BF52EA4306D1D1BC
:1006C80081EA030101F000414FF0000070BD50EADB
:1006D800410606BF1046194652EA430619D094EA65
:1006E8000C0F02D150EA013613D195EA0C0F05D14F
:1006F80052EA03361CBF104619460AD181EA0301A3
:1007080001F0004141F0FE4141F470014FF000005A
:1007180070BD41F0FE4141F4780170BD70B54FF0F5
:10072800FF0C4CF4E06C1CEA11541DBF1CEA135575
:1007380094EA0C0F95EA0C0F00F0A7F8A4EB050457
:1007480081EA030E52EA03354FEA013100F088804E
:100758004FEA03334FF0805545EA131343EA126317
:100768004FEA022245EA111545EA10654FEA0026CC
:100778000EF000419D4208BF964244F1FD0404F585
:10078800407402D25B084FEA3202B61A65EB0305E1
:100798005B084FEA32024FF480104FF4002CB6EB9E
:1007A800020E75EB030E22BFB61A754640EA0C001E
:1007B8005B084FEA3202B6EB020E75EB030E22BF5E
:1007C800B61A754640EA5C005B084FEA3202B6EB9F
:1007D800020E75EB030E22BFB61A754640EA9C005E
:1007E8005B084FEA3202B6EB020E75EB030E22BF2E
:1007F800B61A754640EADC0055EA060E18D04FEAEC
:10080800051545EA16754FEA06164FEAC30343EA8B
:1008180052734FEAC2025FEA1C1CC0D111F4801F58
:100828000BD141EA00014FF000004FF0004CB6E751
:1008380011F4801F04BF01430020B4F1FD0C88BFF0
:10084800BCF5E06F3FF6AFAEB5EB030C04BFB6EBFB
:10085800020C5FEA500C50F1000041EB045170BDEE
:100868000EF0004E4EEA113114EB5C04C2BFD4EB1B
:100878000C0541EA045170BD41F480114FF0000E9F
:10088800013C90E645EA060E8DE60CEA135594EA1B
:100898000C0F08BF95EA0C0F3FF43BAF94EA0C0F1E
:1008A8000AD150EA01347FF434AF95EA0C0F7FF493
:1008B80025AF104619462CE795EA0C0F06D152EAE7
:1008C80003353FF4FDAE1046194622E750EA4106CB
:1008D80018BF52EA43067FF4C5AE50EA41047FF4DC
:1008E8000DAF52EA43057FF4EBAE12E74A0011D28E
:1008F80012F5001211D20DD56FF47873B3EB625272
:100908000ED44FEAC12343F0004343EA505323FA7D
:1009180002F070474FF00000704750EA013002D1F2
:100928004FF0FF3070474FF0000070474FEA410228
:10093800B2F1E04324BFB3F5001CDCF1FE5C0DD935
:1009480001F0004C4FEAC0024CEA5070B2F1004F7F
:1009580040EB830008BF20F00100704711F0804F82
:1009680021D113F13872BCBF01F00040704741F447
:1009780080114FEA5252C2F11802C2F1200C10FA4B
:100988000CF320FA02F018BF40F001004FEAC1232F
:100998004FEAD32303FA0CFC40EA0C0023FA02F3D3
:1009A8004FEA4303CCE77FEA625307D150EA0133A9
:1009B8001EBF4FF0FE4040F44000704701F0004079
:1009C80040F0FE4040F40000704700BF53B94AB9F8
:1009D800002908BF00281CBF4FF0FF314FF0FF303F
:1009E80000F02AB8ADF1080C6DE904CE00F003F967
:1009F800DDF804E0DDE9022304B07047D0B5002239
:100A08000B4B06460F46FFF75FFDFFF76FFF0446E7
:100A1800FFF7E0FC0022074BFFF756FD02460B46A6
:100A280030463946FFF798FBFFF760FF2146D0BDF7
:100A38000000F03D0000F041704700BF4FF0FF3C60
:100A480006E000BF4FF0010C02E000BF4FF0010CC0
:100A58004DF804CD4FEA410C7FEA6C5C4FEA430C39
:100A680018BF7FEA6C5C1BD001B050EA410C0CBF88
:100A780052EA430C91EA030F02BF90EA020F0020EA
:100A8800704710F1000F91EA030F58BF994208BF51
:100A980090422CBFD8176FEAE37040F0010070470E
:100AA8004FEA410C7FEA6C5C02D150EA013C07D165
:100AB8004FEA430C7FEA6C5CD6D152EA033CD3D0B0
:100AC8005DF8040B704700BF8446104662468C46AA
:100AD8001946634600E000BF01B5FFF7B7FF0028DD
:100AE80048BF10F1000F01BD4DF808EDFFF7F4FF06
:100AF8000CBF012000205DF808FB00BF4DF808ED91
:100B0800FFF7EAFF34BF012000205DF808FB00BFB3
:100B18004DF808EDFFF7E0FF94BF012000205DF8D5
:100B280008FB00BF4DF808EDFFF7CEFF94BF01208A
:100B380000205DF808FB00BF4DF808EDFFF7C4FF83
:100B480034BF012000205DF808FB00BF4FEA410CCC
:100B58007FEA6C5C02D150EA013C0AD14FEA430CAF
:100B68007FEA6C5C02D152EA033C02D14FF00000EC
:100B780070474FF0010070474FEA410212F500122A
:100B880015D211D56FF47873B3EB625212D94FEACC
:100B9800C12343F0004343EA505311F0004F23FAB6
:100BA80002F018BF404270474FF00000704750EA0B
:100BB800013005D111F0004008BF6FF000407047C8
:100BC8004FF00000704700BF38B5002200230446EC
:100BD8000D46FFF793FF28B920462946BDE838405F
:100BE800FFF70CBF204605F10041FFF707FF404221
:100BF80061EB410138BD2DE9F04786468C46084631
:100C0800089E154674461946002B40F0C18085425F
:100C1800B2FA82F245D94AB1C2F1200300FA02FCC5
:100C2800954094402EFA03F343EA0C0C4FEA154E14
:100C3800A8B2230CBCFBFEF80EFB18CC08FB00F98D
:100C480043EA0C43994528D9EB1808F1FF3704D239
:100C5800994502D9A8F102072B44A3EB0903A4B2D2
:100C6800B3FBFEFC0EFB1C330CFB00F044EA034410
:100C7800A04214D92C190CF1FF3304D2A04202D996
:100C8800ACF102032C44241A43EA07401EB1D440B5
:100C9800002334607360BDE8F0874746DDE76346AC
:100CA800F1E792BB431B01214FEA154EAFB2200C6E
:100CB800B3FBFEFC0EFB1C330CFB07F840EA0343B6
:100CC800984561D9EB180CF1FF3004D2984502D948
:100CD800ACF102002B44A3EB0803A4B2B3FBFEFC67
:100CE8000EFB1C330CFB07F744EA0344A7424DD91B
:100CF8002C190CF1FF3304D2A74202D9ACF102033C
:100D08002C44E41B43EA0040C0E7C2F120039540AD
:100D1800944020FA03F12EFA03F34FEA154E90405F
:100D2800AFB20343B1FBFEFC0EFB1C10190C0CFB0D
:100D380007F841EA0041884522D969180CF1FF30CB
:100D480004D2884502D9ACF102002944A1EB08017C
:100D58009BB2B1FBFEFC0EFB1C110CFB07F743EA30
:100D680001439F420ED9EB180CF1FF3104D29F4288
:100D780002D9ACF102012B44DB1B41EA004193E7A5
:100D88006046E3E76146F7E76046A4E76346B8E7ED
:100D9800834206D916B9002108467CE7C6E900E077
:100DA800F9E7B3FA83F78FB9834201D3724508D8BC
:100DB800BEEB020460EB030301209C461EB9002130
:100DC80069E73846FAE7C6E9004CF8E7C7F1200CAE
:100DD800BB400EFA07F522FA0CF42EFA0CF1BA40D1
:100DE8001C4320FA0CF3B8404FEA144901431FFA98
:100DF80084FEB3FBF9F809FB18300B0C08FB0EFA5C
:100E080043EA00439A4540D9E31808F1FF3004D279
:100E18009A4502D9A8F102002344A3EB0A0389B238
:100E2800B3FBF9F809FB183308FB0EFE41EA03414E
:100E38008E452CD9611808F1FF3304D28E4502D9AA
:100E4800A8F10203214443EA0040A1EB0E01A0FBF4
:100E580002984145CE46434602D306D14D4504D2B9
:100E68000138B9EB020E68EB0403002EA7D0B5EBEE
:100E78000E0261EB030101FA0CFC22FA07F3F940B8
:100E88004CEA0303C6E9003199E74046C5E7434603
:100E9800D9E770B4840746D04C1E002941D0D5B29A
:100EA800034602E0611EE4B30C4603F8015B9907B0
:100EB800F8D1032C2ED9D5B245EA05250F2C45EAE1
:100EC800054519D9264603F11001103E0F2E41F8A9
:100ED800105C41F80C5C41F8085C41F8045C01F1D5
:100EE8001001F2D8A4F1100121F00F0104F00F0451
:100EF8001031032C0B440DD91E4621460439032911
:100F080046F8045BFAD8211F21F0030104310B4491
:100F180004F003042CB1D2B21C4403F8012BA34201
:100F2800FBD170BC70470C460346C2E710F8012B92
:100F380011F8013B012A28BF9A42F7D0D01A70470E
:100F4800034613F8012B002AFBD1181A0138704701
:100F580070B52DED028B82B0044629B1C4EBC402F2
:100F6800334B03EBC2039961C4EBC403304A12F854
:100F78003330304803700DF09FF818B102B0BDEC63
:100F8800028B70BD0DF1060060F012FB0028F5D150
:100F9800BDF8060040F4806080B2ADF8060060F04D
:100FA80001FB0028EAD1244D28780DF007F930EE2E
:100FB800008A224E30780DF0AFF907EE900AF8EE6D
:100FC800E77A67EE887A17EE900AFFF725FA16A3F4
:100FD800D3E90023FFF778FA41EC100B00F0E0F8B2
:100FE80051EC100BFFF782FC154B1870C4EBC403CF
:100FF8000F4800EBC300337843702B788370C370BD
:1010080007230371013060F096FA0028B6D1094829
:101018000DF062F80028B1D10122A24009490B78ED
:1010280013430B70AAE700BF9A9999999999F13FD0
:10103800C40400200CB40020BC190020BB190020F7
:10104800B7D70020B9D7002010B5082140F60140D5
:101058001EF0BAFED8B104460821084437F07EFCD9
:1010680002460F4B93F8883013F0010F0BD10D484F
:101078004FF0005165F0B0F80022214640F60140DB
:101088001EF0F4FE10BD04A1D1E90001F2E76FF0F3
:101098006800F7E7AFF30080908800020080002026
:1010A800000000201088000230B589B00C9D00288F
:1010B80039D00446002943D0D0F8200110F0010FA0
:1010C8004BD10020C4F80801C4F80C0104F588705D
:1010D800C4F81001C4F8140104F58C70C4F81801A0
:1010E800C4F81C01002D45D02879002844D10120DE
:1010F800C4F820019FED227B8DED067B0020049033
:1011080003930290019000941F4B204643F090F9FE
:1011180025B1296811B1204642F056FF20466FF0EC
:1011280066FF09B030BD194C4FF432732246184996
:10113800184861F014FB4FF43271204610F0EEFFAE
:10114800124C40F2C92322461349124861F007FBAA
:1011580040F2C921204610F0E1FF0C4C40F2CA23AE
:1011680022460E490B4861F0FAFA40F2CA2120469D
:1011780010F0D4FF0120BBE740F20110B8E700BF30
:10118800FFFFFFFFFFFFFFFF655304007811080012
:1011980040120800143007004812080050120800D6
:1011A80051EC100BC1F30A532DE9F041A3F2FF36BD
:1011B8000C4605468046132E2FDC002E11DA32A38A
:1011C800D3E90023FEF7CAFF00220023FFF7B4FC8F
:1011D80020B1002C50DB254352D12C46214628460D
:1011E80024E02B4F374101EA070303431ED026A30F
:1011F800D3E90023FEF7B2FF00220023FFF79CFC8F
:101208000028EBD0002C4FF00005C2BF4FF480132C
:101218003341E41824EA0704E0E7332E0ADDB6F583
:10122800806F03D102460B46FEF798FF41EC100B86
:10123800BDE8F081A3F213434FF0FF37DF40384297
:10124800F4D011A3D3E90023FEF788FF002200237E
:10125800FFF772FC0028C1D0002C0ADD142E01D142
:10126800013406E0C6F134060123B3401D44A84505
:10127800F6D825EA0705B1E700254FF00044ADE7A9
:101288000025044CAAE700BF9C7500883CE4377E23
:10129800FFFF0F000000F03F2DE9F04F1F469DB003
:1012A80000230C4682460F9218934FF00008984B83
:1012B8004FF000091D682846FFF742FE2246834684
:1012C800179213782B2B3BD02CD80D2B26D8082B14
:1012D80026D8002B2FD000230D93179E3378302B60
:1012E80074D1737803F0DF03582B65D10D9B17A9D0
:1012F800884A5046019318AB0297009319AB5EF0E9
:10130800FBFF10F00705044635D0062D1AD10F9BB8
:101318000BB101361E6042464B4637E0202BDAD12E
:101328000132CDE72D2BD6D101230D93531C1793F2
:101338005378002BD1D10F9B002BECD01C60EAE72F
:101348000023F2E7189A3AB135211AA870F06CFF19
:10135800189950465FF090FA013D199A042D06D865
:10136800DFE805F0190322251900DDE91A892107AC
:1013780001D549F000490F9B13B1179B0F9A1360D1
:101388000D9B002BC7D0424609F1004343EC102BBC
:101398001DB0BDE8F08FDDE91A8302F2334223F471
:1013A800801343EA0259E2E7DFF86C91DFE76FF058
:1013B80000494FF0FF38DAE7179B5A1C17925B7801
:1013C800302BF9D0002BD6D0012300E000230027D2
:1013D80004930A22179BCDE905770A931798067894
:1013E800A6F13003D9B2092924D95A46294670F002
:1013F80070FB00282DD000203246059D8346034609
:10140800652A01D0452A13D11DB9049A024392D006
:101418000025179C621C179262782B2A6ED02D2A01
:1014280072D04FF0000CA2F1300109297AD9179433
:10143800002699E00599013008291790D7BF069929
:1014480002FB073702FB01330693059B0133059323
:10145800C4E7179B03EB0B02179213F80B20059BAD
:10146800A3B383461D46A2F13003092B12D90123E9
:10147800C6E7179B01305A1C17925A78302AF8D0C1
:10148800A2F13103082B00F2EF8483460020179B5A
:1014980005460A93303A00F1010311D09B4400EB52
:1014A800050C2B460A21634512D12B180135082B50
:1014B800054419DC06990A2303FB0123069300233C
:1014C800179A1846511C17915278CCE70598D5E71A
:1014D800082B03F1010303DC069E4E430696E2E760
:1014E800102BD8BF4F43DEE70F2BDCBF0A2303FBCB
:1014F8000727E4E74FF0000B012386E74FF0000CC5
:10150800A21C1792A2788EE74FF0010CF8E700BFF3
:10151800D8430800644308000000F07F179A511C64
:1015280017915278302AF9D0A2F1310108293FF6F3
:101538007FAF303A0792179A0C92179A561C179653
:101548005278A2F1300EBEF1090F38D90C99761AEB
:10155800082E44F61F6603DC07998E42A8BF0E4684
:10156800BCF1000F00D07642002D4FD104990843FA
:101578007FF401AF002B7FF4DEAE692A29D026DC88
:10158800492A26D04E2A7FF4D6AE9B4917A870F078
:10159800C9FC00283FF4CFAE179B1B78282B2FD10E
:1015A8001AAA964917A870F0D1FC052828D11B9BC8
:1015B800DDF8688043F0FF4949F4E009DBE6079E5F
:1015C8000A2101FB0621A1F130020792B5E76E2A34
:1015D800D9E78B4917A870F0A5FC00283FF4ABAEFB
:1015E800179B17A88749013B179370F09BFC10B90C
:1015F800179B01331793DFF81C924FF00008BAE6E7
:10160800814801F079FA59EC108BB4E6A6EB0B038C
:1016180006982C460C93059B002B08BF2B46102DD3
:101628000593A8BF1024FEF7D5FE092D80468946EC
:1016380013DC0C9B002B3FF49EAE0C9B78DD162B25
:1016480045DC7249424601EBC3014B46D1E9000132
:10165800FEF73AFF804689468DE66C4B03EBC403E0
:1016680053E91223FEF730FF804689463846FEF7D5
:10167800B1FE02460B4640464946FEF76FFD0F2D68
:1016880080468946D5DD2C1B0C9B1C44002C25DC90
:1016980000F0A280644214F00F020AD05B4B40466F
:1016A800494603EBC203D3E90023FFF737F8804626
:1016B8008946241100F090801F2C40F3B18022232A
:1016C8004FF000084FF00009CAF8003053E6C5F1A2
:1016D80025030C9A934219DA2C1B144414F00F03B7
:1016E8000AD04A49424601EBC3014B46D1E9000101
:1016F800FEF7EAFE8046894634F00F046CD0B4F554
:101708009A7F41DD2223CAF8003074E7C5F10F053E
:101718003E4C42464B4604EBC501D1E90001FEF7B9
:10172800D3FE0C9B5D1B04EBC504D4E900238FE7B3
:101738001633A8DBABEB0602344B4046494603EBB5
:10174800C203D3E90023FEF7E9FF83E700230693EA
:101758002223DFF8C0904FF00008CAF8003018992B
:1017680050465FF089F8069950465FF085F805996C
:1017780050465FF081F8109950465FF07DF8079960
:1017880050465FF079F8F6E50023241140464946B3
:101798001F4F0493012C22DC0BB180468946049B21
:1017A800A9F154791A49424601EBC3014B46D1E9E4
:1017B8000001FEF789FE174B0A4680460B40164982
:1017C8008B429FD8A1F580118B4286BFDFF84C90E1
:1017D8004FF0FF3802F15479002304934BE0E207FD
:1017E80004D5D7E90023FEF76FFE0123049A64109D
:1017F800083701320492CDE76D8C08005043080089
:10180800658C0800978C08004D8B0800182F07007E
:10181800F02E07000000F07F0000A07CFFFFEF7FA4
:1018280014F0100340464946AA4F18BF6A23049390
:101838000023E20704D5D7E90023FEF745FE01237C
:10184800641007F10807F4D10BB180468946049B60
:1018580043B1C9F30A524946C2F16B03002B4EDC6F
:101868006A2304930022002340464946FFF73CF9C7
:1018780000287FF424AF069B5046059A00932B4618
:101888000A995FF063F8109000283FF43BAF0C9B77
:10189800ABEB060B002BB4BF5B46002311930C9BEC
:1018A80023EAE3731393002307930593109B504691
:1018B80059685EF0A1FF069000283FF449AF109BDD
:1018C8000C301A6903F10C01023292006FF065FFC7
:1018D8001AAA19A9504649EC108BCDE90A895FF07C
:1018E80011FB189000283FF433AF012150465FF0F8
:1018F80077F803460590D0B90023059328E71F2BF6
:101908000EDD342B4FF00008DBBF4FF0FF33C2F180
:101918004B024FF05C799340D8BF03EA01099FE777
:101928004FF0FF3202FA03F303EA080898E7199C1C
:101938001A9A002CA9BF119B139BE718139EB8BFD6
:101948001E1B049BB8BF119FE41A634B1444C2F1D9
:101958003602013C9C4280F2B0801B1B01251F2BE4
:10196800A2EB0302CDBFC4F17F449D40002404F5DF
:101978007F04C2BF04F57B44E23405FA04F407EBA4
:10198800020B049B16445F451E443B46A8BF5B46BA
:10199800B342A8BF3346002BC2BFABEB030BF61A0A
:1019A800FF1A119B002B16DD1A46059950465FF069
:1019B800D7F8059000289FD00146189A50465FF046
:1019C80025F80E9000283FF4C3AE189950465EF0F3
:1019D80053FF0E9B1893BBF1000F71DC0C9B002B7F
:1019E80008DD139A504606995FF0BAF80690002869
:1019F8003FF4ACAE002E08DD3246069950465FF043
:101A080009F9069000283FF4A1AE002F08DD3A46F8
:101A1800059950465FF0FEF8059000283FF498AE0F
:101A2800069A504618995FF061F9079000283FF42C
:101A38008FAEC36805990E930023C36070F0A7FBAF
:101A480000284BDA0E9B53EA080340F0BC80C9F328
:101A58001303002B40F0B78029F000431B0D1B0532
:101A6800B3F1D66F40F2AF80079B5B6923B9079B40
:101A78001B69012B40F3A7800122079950465FF0AC
:101A8800C9F80599079070F082FB002840F39B8005
:101A980029F00043049A1B0D1B05002A79D0B3F1E5
:101AA800D66F6DD8B3F15C7F46D84FF000084FF081
:101AB80000092223CAF8003051E6002401255EE718
:101AC8005A46189950465FF0A5F81890002885D115
:101AD8003EE600BFC82E070002FCFFFFCB4640F0E1
:101AE800A3800E9AC9F31303002A40D09C4A93425C
:101AF80058D1049B42467BB9B8F1FF3F40F089803A
:101B0800984B99453FF424AE974BDDF8108009EACD
:101B1800030303F5801922E6934B09EA0303B3F1A3
:101B2800D46F16D918F101011BD18E4A91453FF4A3
:101B38000FAE03F5801980468C4B4046494600227B
:101B4800FEF7C2FC0B468046894603437FF407AE86
:101B5800AFE71E0D4FF0FF31C6F16B06B140884567
:101B6800E7D0002C5ED014EA0B0FE5D01EE0002B66
:101B78004AD1B8F1000F8BD064B314EA0B0F2BE0F5
:101B8800A3F580134FF0FF386FEA13596FEA09592C
:101B9800D2E7A3F580134FF0FF386FEA13596FEAC5
:101BA8000959DCE59CB114EA090F0CD040464946B6
:101BB800049A6FF0D5FFDDE90A0153EC102BFEF70C
:101BC800CDFA80468946049B002BB5D1C7E515EAB6
:101BD800080FEAE718EA050FF5D0049A4046494687
:101BE8006FF0BEFFDDE90A0153EC102BFEF7B4FAE3
:101BF8000022002304460D46FEF776FF00287FF4F6
:101C080054AFA046A946DEE7002CB6D115EA080F66
:101C1800E2E724B114EA090F3FF4A1ADC6E718EAD8
:101C2800050FF9E72A42A0E70599079870F0CAFA64
:101C380000224FF0804355EC104B20462946FEF712
:101C480067FF00286DD00E9B002B78D1B8F1000FEC
:101C580056D1C9F31303002B59D10022444B204617
:101C68002946FEF74BFF002858D120462946002276
:101C7800404BFEF729FC04460D4605F10043089445
:101C88000993394B0BEA03031293129A3A4B9A427F
:101C9800DDE9086740F0A980ABF1547949EC108B75
:101CA8005FF0BCF8DDE9082351EC100BFEF70CFCE3
:101CB80042464B46FEF752FA0B462B4980462F4ABE
:101CC800194091425CD90B9A264B9A4203D10A9B40
:101CD80001333FF43DADDFF88C904FF0FF38189991
:101CE80050465EF0C9FD069950465EF0C5FD05995F
:101CF80050465EF0C1FD079950465EF0BDFDD5E542
:101D0800B8F1010F03D1B9F1000F3FF4CEAE0024B2
:101D1800174D9FED0F7B8DED087BB2E70024154D25
:101D2800ABE7144B204629460022FEF7CDFB0E9B5D
:101D380004460D46002BA0D0CDE90845A1E79FED4C
:101D4800067B55EC174B8DED087B9AE7AFF30080C7
:101D5800000000000000F0BF000000000000F03F9D
:101D6800FFFF0F00FFFFEF7F0000F07F00005039FA
:101D78000000F03F0000E03F0000E07FFFFF9F7C95
:101D880003F15479049B4E46002BA8D129F0004357
:101D9800129A1B0D1B059A42A1D120462946FEF72F
:101DA80013FFC9F31306FEF761FB0B4602462946EB
:101DB800204646EA0806FEF7CFF90E9B04460D4674
:101DC8001E434BD02EA3D3E90023FEF797FE00282D
:101DD8007FF4C5AC204629462BA3D3E90023FEF7A0
:101DE800ABFE00283FF47BAFB9E4049B13B3129B0E
:101DF800B3F1D46F1ED82046294625A3D3E9002382
:101E0800FEF786FE90B129462046FEF76FFD0128B1
:101E180038BF0120FEF7DEFA0E9B04460D46D3B903
:101E280001F1004314901593DDE9146707F1D663B7
:101E3800129A9F1A9DED0A0B5EF0F0FF3046394664
:101E480053EC102BFEF740FBDDE90A23FEF786F979
:101E58008046894696E7CDE91445E5E70EA3D3E920
:101E68000023FEF74BFEBCE7652A3FF443AB452A47
:101E78003FF440AB0123FFF779BB00BFAFF300800D
:101E88009535A094FFFFDF3F35E5AF350000E03F13
:101E98000000C0FFFFFFDF419535A094FFFFCF3F53
:101EA8002DE9F04F476A97B08346209E08910C921F
:101EB800129355EC104B8DED000B7FB910205DF09F
:101EC800B1F90246CBF8240020B9A74BEA21A7486C
:101ED8005DF078F9C0E901770760C760DBF8243066
:101EE800196859B15A680123584693404A608B6073
:101EF8005EF0C2FCDBF8243000221A602B1EB7BF4C
:101F080023F00043002301220193A8BF3360019FFF
:101F1800974BB8BF3260BB4319D142F20F73129A84
:101F28001360C7F31303234300F0DB85219B53B9E8
:101F3800904B21E0904B03930833219A1360039848
:101F480017B0BDE8F08F8B4B03930333F5E79DED96
:101F5800007B0022002351EC170B8DED0A7BFEF766
:101F6800C3FD804650B10123129A1360219B13B11F
:101F7800824B219A1360824B0393E0E7C7F30A561A
:101F880014AA15A958469DED0A0B5EF0BBFF0290F6
:101F9800002E76D00B9BA6F2FF36CDF84C80C3F30B
:101FA800130343F07F53DDE90A0143F44013194654
:101FB8000022744BFEF7D0F865A3D3E90023FEF79F
:101FC80083FA65A3D3E90023FEF7C8F804460D4653
:101FD8003046FEF70FFA62A3D3E90023FEF774FA3E
:101FE80002460B4620462946FEF7B8F804460D4639
:101FF800FEF7C2FD00220746002320462946FEF7C9
:102008007DFD40B13846FEF7F5F922462B46FEF72E
:102018006BFD00B9013F162F52D85B4B03EBC7038A
:10202800DDE90A01D3E90023FEF768FD002849D05D
:10203800013F00231193149B9B1B5A1E4CBFC3F1F5
:1020480001030023079245BF0693002306930793D5
:10205800002F39DB079B10973B4407930023099314
:10206800089B092B66D8052BC5BF043B0024012417
:102078000893089B023B032B67D8DFE803F02D3A4F
:102088003859DDE914631E4406F23243202BC9BFD8
:10209800C3F14003C3F120039F4006F21243D8BFA7
:1020A80004FA03F006F1FF36C4BF24FA03F347EA43
:1020B8000300FEF78FF90122A1F1F873139276E776
:1020C8000123B7E71190B6E7069BDB1B06937B421B
:1020D800099300231093C3E700230D930C9B002B57
:1020E80056DC012399461A4604930C920CE001230E
:1020F800F3E700230D930C9BFB1803F101090493EC
:102108004B46012BB8BF0123DBF824000021042231
:1021180002F114059D423FD9416058465EF06CFBC0
:10212800039000283BD1194B02464FF4D571CEE6F7
:102138000123DFE7012400230D9408934FF0FF33B8
:102148000022994604931223CFE701230D93F5E764
:1021580061436F63A787D23FB3C8608B288AC63FA5
:10216800FB799F501344D33FA18C0800B88C08001A
:102178000000F07F9D8C0800948C0800718C08008A
:10218800708C08000000F83F182F07002C8D0800FD
:102198000C9B99460493B7E701315200B8E7DBF886
:1021A8002430B9F10E0F039A1A606FD8002C6DD045
:1021B800002F36DD07F00F02A04BF8054FEA271471
:1021C80003EBC20393ED007B8DED0E7B17D59C4B83
:1021D80004F00F044FF00308D3E90823DDE90A01EE
:1021E800FEF79CFACDE90001954D5CB9DDE90E23B7
:1021F800DDE90001FEF792FACDE900012BE04FF08E
:102208000208F1E7E10709D508F10108DDE90E0147
:10221800D5E90023FEF758F9CDE90E016410083519
:10222800E3E700F007817C42844B854D4FF00208BC
:1022380004F00F02241103EBC203DDE90A01D3E91C
:102248000023FEF741F90023CDE90001002C40F0FE
:10225800E580002BD0D1119BDDE90045002B00F073
:102268004C810022774B20462946FEF747FC002880
:1022780000F04381B9F1000F00F03F81049B002B6F
:1022880000F3E480DDE90A34CDE90034159B002B26
:1022980002DB0E2F40F342820D9A002A40F067823B
:1022A800099C0025DDF81880B8F1000F0DD0079BB8
:1022B800002B0ADD4345069AA8BF4346D21AA8EB6D
:1022C80003080692079AD31A0793099B0BB30D9B31
:1022D800002B00F0A682002C00F0A182294622469D
:1022E80058465EF03DFC029A0146054658465EF0A7
:1022F8008DFB0299064658465EF0BEFA099B1B1BE9
:10230800099300F09182099A314658465EF028FCFC
:102318000290012158465EF063FB109B0446002B97
:1023280000F084821A46014658465EF019FC089B64
:102338000446012B03DC009B002B00F07C82002666
:10234800236904EB830318696FF0D2FEC0F1200003
:102358001096079B184410F01F0000F09182C0F1FE
:102368002003042B40F38182C0F11C00069B034428
:1023780080440693079B03440793069B002B05DDC7
:102388001A46029958465EF045FC0290079B002BBE
:1023980005DD21461A4658465EF03CFC0446119B72
:1023A800002B00F07682214602986FF0F0FE00289C
:1023B80080F26F8200230A22029958465EF07EFA64
:1023C8000D9B7E1E0290002B00F05C8200232946A4
:1023D8000A2258465EF072FA049B0546002B03DC7D
:1023E800089B022B00F35E82B8F1000F05DD294639
:1023F800424658465EF00EFC0546109B002B00F046
:10240800D082696858465EF0F7F90746002840F020
:102418007F820D4B024640F2EA2158E5E20706D5D5
:1024280008F10108D5E90023FEF74EF801236410EE
:1024380008350BE74FF002080DE700BF182F07001B
:10244800F02E07000000F03F2C8D080020460022E7
:10245800AC4B2946FEF738F87E1E08F10108049CAB
:10246800CDE900014046FDF7C5FFDDE90023FEF791
:102478002BF8A54B0022FDF771FEA1F15073CDE9B1
:102488000E010F93002C3BD10022A04BDDE9000187
:10249800FDF762FE02460B46CDE90023DDE90E2377
:1024A800FEF74AFB002840F05781DDE90E2101F1D3
:1024B8000043DDE90001FEF721FB00283FF4E2AE0E
:1024C800002425460C9BDDF80CA0DE434FF00008E5
:1024D800214658465EF0D0F9002D00F0A980B8F1E9
:1024E800000F05D0A84503D0414658465EF0C4F910
:1024F800294658465EF0C0F99AE03E464C46B1E798
:10250800834B03EBC40353E90201039B1C440D9B5B
:10251800002B4AD002460B4600207E49FEF7FEF803
:10252800DDE90E23FDF718FEDDF80CA0CDE90E015C
:10253800DDE90001FEF720FB0546FDF75BFF0246DB
:1025480030350B46DDE90001FDF706FE0AF8015BB0
:1025580002460B46CDE90001DDE90E01FEF7ECFA73
:10256800002865D100206C49DDE90023FDF7F4FD62
:1025780002460B46DDE90E01FEF7DEFA002840F0C0
:102588000D81A24500F0EA8000225E4BDDE90E01D4
:10259800FDF79AFF00225B4BCDE90E01DDE9000152
:1025A800FDF792FFCDE90001C2E7DDE90E23FDF753
:1025B8008BFFA046DDF80CA0CDE90E01DDE9000196
:1025C800FEF7DAFA0546FDF715FF024630350B46E9
:1025D800DDE90001FDF7C0FD0AF8015B02460B4684
:1025E800A245CDE900234FF0000223D1494BDDE994
:1025F8000E01FDF7B3FD02460B46DDE90001FEF7CB
:102608009BFA002840F0CA8000204249DDE90E23E9
:10261800FDF7A2FD02460B46DDE90001FEF76EFA62
:1026280070B1C24608F1FF381AF8013C302BF8D0D7
:10263800374655E0334BFDF747FFCDE90001BDE7CD
:10264800DDE90A34CDE90034159B002BFFF628AEEE
:102658000E2F3FF725AE2E4B03EBC70393ED007B00
:102668000C9B002B8DED047B02DAB9F1000F64D0CE
:10267800DDF80CA0DDE90045DDE904232046294604
:10268800FEF74CF8FEF778FA0646FDF7B3FEDDE9EB
:102698000423FDF719FF0246204606F130040B46D5
:1026A8002946FDF759FD0AF8014B039C02460B46E3
:1026B800AAEB0404A14540F08280FDF74FFD0446D3
:1026C8000D46DDE90423FEF737FA002865D12046D8
:1026D8002946DDE90423FEF707FA08B1F3075CD4BD
:1026E800029958465EF0C8F8002301378AF800308E
:1026F800129B1F60219B002B3FF421ACC3F800A064
:102708001DE400BF0000244000001C4000001440ED
:10271800182F07000000E03F0000F03FA24B03EB3A
:10272800C70393ED007B0C9B002B8DED047B9FDA98
:10273800B9F1000F9CDC7FF4C3AE00229B4BDDE9AE
:102748000401FDF7C1FEDDE90023FEF7EBF90446BD
:1027580000287FF4B5AE3E462546B4E0DDE90A34EC
:10276800CDE90034159B002B01DB0E2FD6DD089A2E
:10277800012A36DC139A82B303F23343099CDDF84D
:102788001880069A012158461A440692079A1A4454
:1027980007925EF025F9054686E53E4653469A4679
:1027A80013F8012D392A06D1039A9A42F7D130221B
:1027B800039901360A701A7801321A7038E7002234
:1027C8007B4BFDF781FE0022002304460D46FEF7F1
:1027D8008BF900283FF450AF82E7149BC3F136030E
:1027E800CCE709F1FF34099BA34208DBB9F1000FDC
:1027F800A3EB04040EDBDDF818804B46C1E7099B08
:10280800109AE31A0994DDF8188000241A444B46FC
:102818001092B6E7069BA3EB09080023B1E7029ED6
:1028280071E5099A029970E5029672E5089B012BF9
:1028380017DC009BABB9019BC3F313039BB9019B46
:1028480023F00046360D360536B1069B01260133C6
:102858000693079B01330793109B002B7FF470AD01
:102868001096012075E50026F6E73FF486AD1C3387
:10287800069A1A4498440692079A1A4407927CE5E5
:102888000346F4E7049B002B2BDC089B022B09DC96
:1028980027E0B9F1000F1DDC089B022B1ADD3E462C
:1028A800CDF81090049B002B7FF40CAE2146052236
:1028B80058465EF003F80146044602986FF067FC3C
:1028C80000287FF7FFADDDF80CA0312301360AF8A8
:1028D800013BFBE50D9B3E46CDF81090002B7FF4A5
:1028E80083AD039F214602986FF05FF9039B00F1C7
:1028F8003009049A07F8019BFB1A9A4240F3CB80EF
:1029080000230A22029958465DF0D8FF0290E9E7B1
:102918002A6905F10C010C30023292006EF03DFF7D
:102928000122394658465EF075F9039BA8460546CC
:1029380003F1010ADDE9032313440793009B03F025
:10294800010309930AF1FF332146029804936FF0BB
:102958002CF94146069000F1300902986FF017FCF7
:102968002A462146074658465EF0C0F9C268014625
:1029780002B358465DF080FF002F3ADA012202992F
:1029880058465EF047F9214602906FF000FC002897
:1029980003DC29D119F0010F26D0B9F1390F1DD167
:1029A80032E02846C1E700BF182F07000000144096
:1029B800000024400A9002986FF0E9FB0A990C90F5
:1029C80058465DF059FF0C9A5ABB089B53B9099BAE
:1029D80043B9B9F1390F17D0002F05DD069B03F174
:1029E800310901E0002F2ADADDF810A00AF8019B6E
:1029F8006EE5089B3B4304D1009B03F00103002BC9
:102A0800BCD0B9F1390F36D1049F392307F8013BFF
:102A1800BA46013F1AF8013C392B5AD001333B70B2
:102A280056E5002F06DB089B3B4306D1009B03F0CD
:102A3800010313B9002AA1DCD6E7002AE1DC079BD1
:102A480057460AF8019C53452ED000230A220299C2
:102A580058465DF033FFA84502904FF000034FF051
:102A68000A02414658460BD15DF028FF80460546CC
:102A78000AF1010A66E7DDF810A009F10109B5E7D6
:102A88005DF01CFF2946804600230A2258465DF067
:102A980015FF0546ECE7049B4FF00008002BCCBF60
:102AA8001F460127039B1F440122029958465EF0E6
:102AB800B1F8214602906FF06AFB0028A8DC02D129
:102AC80019F0010FA4D1BA4617F8013D302BFAD0FE
:102AD800FEE4039BBB429BD13123039A013613705A
:102AE800F6E4219B002B7FF425AA014BFFF744BA9B
:102AF800948C0800000000009FED010B704700BF98
:102B0800000000000000F87F03292FD8DFE801F05B
:102B1800020F1C2922B1D0F8183403F003031370F4
:102B2800D0F8183413F4803F2ED10020704722B11A
:102B3800D0F80C3403F001031370D0F80C3413F4FC
:102B4800803F23D10020704722B1D0F85C3403F0D5
:102B580001031370D0F85C3413F4803F18D10020BF
:102B68007047D0F85404C0F30040704710B5094CC2
:102B780040F247332246084908485FF0F0FD40F22A
:102B8800473120460FF0CAFA0120704701207047EC
:102B980001207047E02F07008C4B07001430070016
:102BA80010B582B00DF1070105200CF0EDFA0446CE
:102BB80060B99DF807304BB11E4B1B6803F0070343
:102BC800022B06D8002108461DF090FF204602B0CF
:102BD80010BD062012F020FC00226FF300026FF3F4
:102BE80041026FF382026FF3C502032363F3881275
:102BF800082363F352226FF3DE426FF3DF728446D9
:102C080090B110F1100301D00B49416163B1022367
:102C18008DF8003000238DF801308DF802308DF8E2
:102C280003300098CCF8100000230249604660F099
:102C380022F8C7E7001B00203430070010B582B027
:102C4800264B0122D3E8EF1FC3E8E02F0028F9D173
:102C580062F044FAFFF7A4FF044650B1204B1B680A
:102C680013F0070F07D1404080F311884FF003009D
:102C780002DF02B010BD082012F0CEFB00226FF375
:102C880000026FF341026FF382026FF3C502012362
:102C980063F38812102363F352226FF3DE426FF35B
:102CA800DF728446A0B1C31804D00E494161846123
:102CB8009D21C16163B104238DF8043000238DF890
:102CC80005308DF806308DF807300198CCF81000E3
:102CD8000023034960465FF0CEFFC4E7C43F0020ED
:102CE800001B00204830070030B583B05EF08CFB35
:102CF80060B10446B24B1B6813F0070F40F0938095
:102D0800404080F311884FF0030002DF0DF034FAE1
:102D1800044658B1AA4B1B6813F0070F40F0B68061
:102D2800404080F311884FF0030002DF0CF04EFAA8
:102D3800044658B1A24B1B6813F0070F40F0D98026
:102D4800404080F311884FF0030002DF0EF09EFD33
:102D58005EF042FB044658B1994B1B6813F0070F0D
:102D680040F0FA80404080F311884FF0030002DF02
:102D780000F010FB044658B1914B1B6813F0070F85
:102D880040F02681404080F311884FF0030002DFB5
:102D98000EF066FC044658B1894B1B6813F0070F08
:102DA80040F04981404080F311884FF0030002DF72
:102DB80084480EF03DFC044658B1814B1B6813F063
:102DC800070F40F06B81404080F311884FF00300FB
:102DD80002DF7C4BDB6813F4FE6F40F092810EF04B
:102DE80007F8054658B1764B1B6813F0070F40F0FB
:102DF800D181404080F311884FF0030002DF724810
:102E080005F044FE0546002800F02D826C4B1B6837
:102E180013F0070F40F0F081404080F311884FF025
:102E2800030002DF1FE2082012F0F6FA00226FF317
:102E380000026FF341026FF382026FF3C5020123B0
:102E480063F38812102363F352226FF3DE426FF3A9
:102E5800DF728446A0B1C31804D05C494161846123
:102E6800A821C16163B104238DF8043000238DF8D3
:102E780005308DF806308DF807300198CCF8100031
:102E880000234F4960465FF0F6FE39E7082012F04C
:102E9800C3FA00226FF300026FF341026FF382025C
:102EA8006FF3C502012363F38812102363F35222E0
:102EB8006FF3DE426FF3DF728446A0B1C31804D00B
:102EC800424941618461AB21C16163B104238DF83A
:102ED800043000238DF805308DF806308DF8073062
:102EE8000198CCF810000023354960465FF0C3FE16
:102EF80016E7082012F090FA00226FF300026FF331
:102F080041026FF382026FF3C502012363F3881253
:102F1800102363F352226FF3DE426FF3DF728446AD
:102F2800A0B1C31804D0294941618461AE21C161AF
:102F380063B104238DF8043000238DF805308DF833
:102F480006308DF807300198CCF8100000231C4992
:102F580060465FF090FEF3E6082012F05DFA00226A
:102F68006FF300026FF341026FF382026FF3C50241
:102F7800012363F38812102363F352226FF3DE42B6
:102F88006FF3DF728446A0B1C31804D00F494161C2
:102F98008461B321C16163B104238DF80430002337
:102FA8008DF805308DF806308DF807300198CCF88B
:102FB80010000023024960465FF05DFED2E600BFC4
:102FC800001B0020B03F0020452C000048300700BF
:102FD800082012F021FA00226FF300026FF3410279
:102FE8006FF382026FF3C502012363F38812102383
:102FF80063F352226FF3DE426FF3DF728446A0B1AF
:10300800C31804D0AC4941618461B621C16163B180
:1030180004238DF8043000238DF805308DF8063030
:103028008DF807300198CCF810000023A3496046BA
:103038005FF021FEA6E6082012F0EEF900226FF3F9
:1030480000026FF341026FF382026FF3C50201239E
:1030580063F38812102363F352226FF3DE426FF397
:10306800DF728446A0B1C31804D0934941618461DA
:10307800B921C16163B104238DF8043000238DF8B0
:1030880005308DF806308DF807300198CCF810001F
:1030980000238A4960465FF0EEFD83E6082012F0BF
:1030A800BBF900226FF300026FF341026FF3820253
:1030B8006FF3C502012363F38812102363F35222CE
:1030C8006FF3DE426FF3DF728446A0B1C31804D0F9
:1030D800794941618461BC21C16163B104238DF8E0
:1030E800043000238DF805308DF806308DF8073050
:1030F8000198CCF810000023704960465FF0BBFDD2
:1031080061E60DF057FF044610F1130F3FF467AE68
:1031180000283FF464AE694B1B6813F0070F06D113
:10312800404080F311884FF0030002DF57E6082083
:1031380012F072F900226FF300026FF341026FF38D
:1031480082026FF3C502012363F38812102363F32D
:1031580052226FF3DE426FF3DF728446A0B1C318C8
:1031680004D0554941618461C121C16163B104231F
:103178008DF8043000238DF805308DF806308DF871
:1031880007300198CCF8100000234C4960465FF0E6
:1031980072FDC5E7082012F03FF900226FF3000224
:1031A8006FF341026FF382026FF3C502012363F3E9
:1031B8008812102363F352226FF3DE426FF3DF723B
:1031C800044698B1C31804D03B4941618561C621C2
:1031D800C1615BB104238DF8043000238DF80530FC
:1031E8008DF806308DF807300198206100233349A7
:1031F80020465FF040FDFCE5082012F00DF90022A2
:103208006FF300026FF341026FF382026FF3C5029E
:10321800012363F38812102363F352226FF3DE4213
:103228006FF3DF72044698B1C31804D02249416194
:103238008561CF21C1615BB104238DF8043000237F
:103248008DF805308DF806308DF80730019820612B
:1032580000231A4920465FF00EFDDDE540F6CD401B
:10326800002143F0E9FE164BD3E8AF3F002BF5D021
:103278005EF0DEF8054650B1104B1B6813F0070FDF
:1032880020D1404080F311884FF0030002DF01F0A5
:10329800EDF802F053F9054650B1084B1B6813F0DE
:1032A800070F41D1404080F311884FF0030002DF3F
:1032B80002F0EEF8FCE700BF48300700001B0020D2
:1032C800C43F0020082012F0A7F800226FF3000284
:1032D8006FF341026FF382026FF3C502012363F3B8
:1032E8008812102363F352226FF3DE426FF3DF720A
:1032F800044698B1C31804D0244941618561D72197
:10330800C1615BB104238DF8043000238DF80530CA
:103318008DF806308DF807300198206100231C498C
:1033280020465FF0A8FCACE7082012F075F80022F0
:103338006FF300026FF341026FF382026FF3C5026D
:10334800012363F38812102363F352226FF3DE42E2
:103358006FF3DF72044698B1C31804D00B4941617A
:103368008561DC21C1615BB104238DF80430002341
:103378008DF805308DF806308DF8073001982061FA
:103388000023034920465FF076FC8BE748300700AE
:10339800001B002090B585B000AF754B1B6803F08B
:1033A8000703022B73D96C4600233B7202237B72FE
:1033B8000122BA720322FA723B7304237B738CB026
:1033C800EC461CF110022DD04FF01A0E2AB1BEF1B6
:1033D800040F02DD674BCCF8143000233B72022344
:1033E8007B722AB1BEF1080F02DD634BCCF81830AE
:1033F8000123BB720323FB722AB1BEF10C0F02DD5D
:103408005E4BCCF81C3002233B7304237B73B2B1B0
:10341800BEF1100F02DD5A4BCCF820300CF124031A
:1034280000210AE06FF0004ED0E701F110003844A7
:1034380010F8080C03F8010B01310529F5D9BEF184
:10344800190F39DD1A234AB1052139710021797123
:10345800B9710321F9717868CCF8100000216FF375
:1034680000016FF341016FF382016FF3C50103207F
:1034780060F38811C3F3090363F352216FF3DE414C
:103488006FF3DF7100233A4812F07CFBA546384BF6
:103498001B6803F00703022B11D83A4812F05AF9B7
:1034A800044628B9324B1B6803F00703022B32D8B5
:1034B80020461437BD4690BD6FF01B03C3E70620B6
:1034C80011F0AAFF00226FF300026FF341026FF3BD
:1034D80082026FF3C502032363F38812082363F3A0
:1034E80052226FF3DE426FF3DF72044668B110F1C7
:1034F800100301D0244941613BB102233B720023F0
:103508007B72BB72FB72B8682061002318492046A1
:103518005FF0B1FBC1E7062011F07EFF00226FF3D8
:1035280000026FF341026FF382026FF3C5020323B7
:1035380063F38812082363F352226FF3DE426FF3BA
:10354800DF72844670B110F1100301D00F49416158
:1035580043B102233B7200237B72BB72FB72B868D3
:10356800CCF810000023024960465FF084FB9FE717
:10357800D81A0020743007000C310700C03007004B
:103588003431070058310700C8300700E43007001D
:10359800054B01221A705A709A70044999600221E9
:1035A80019731A71704700BF384000200077010076
:1035B8002DE9F04FADF69C3D02AF0023C7F8843BE0
:1035C8009846D7E000233246B74960465FF053FB80
:1035D800404080F311884FF0030002DF04EB440001
:1035E80007F5396303EB8403B04A126853F8341CB7
:1035F80007F5777303EB80106EF0CFF82946AC48D7
:103608000EF09CFB0134092C42DC07F65C3303EB1B
:1036180084054FF0FF324FF0FF33CDE90023A34A72
:103628002946A3480EF056FBF8600028D6D09E4BDA
:103638001B6813F0070FCBD0082011F0EDFE6FF3D5
:1036480000066FF341066FF382066FF3C506012388
:1036580063F38816102363F352266FF3DE466FF385
:10366800DF7684460028ADD0C31805D0914A426160
:10367800FA6882617622C261002BA3D004233B77CB
:1036880000237B77BB77FB77F869CCF8100099E7C4
:10369800894B1B79002B62D0884B1B68002B6BD1A0
:1036A80007F68433864A4FF4F06107F5777004F023
:1036B80047F90446002852D07B4B1B6813F0070FCC
:1036C80041D06D4600233B7702237B7788B002A95F
:1036D80011F1100200F0E4804FF00E0C22B1BCF1A1
:1036E800040F01DD774B4B6100233B7602237B7689
:1036F800002A40F0ED80BCF10D0F40F3FC800E2352
:1037080042B10320387700207877B8770120F8771E
:10371800F86908616FF300096FF341096FF38209D3
:103728006FF3C509012161F38819C3F3090363F332
:1037380052296FF3DE496FF3DF79002349465A486F
:1037480012F020FAAD46584B1B6813F0070F40F0F3
:10375800D580404080F311884FF0030002DFB8F5B0
:103768007A7F00F0F98008F10108534B1B79002B90
:1037780040F03A81002446E7534A0092534A4FF4F6
:10378800707107F11C000EF08DF8044650B1464BDD
:103798001B6813F0070F21D1404080F311884FF0C8
:1037A800030002DF07F11403009307F57773102273
:1037B8004FF4707107F11C005DF098FF0446002873
:1037C8003FF46EAF384B1B6813F0070F37D14040FA
:1037D80080F311884FF0030002DF61E7082011F041
:1037E8001BFEBB686FF300036FF341036FF38203A3
:1037F8006FF3C5031A46012363F38812102363F39A
:1038080052226FF3DE426FF3DF72BA60054678B179
:10381800C31804D0274A426184618522C2613BB142
:1038280004233B7600237B76BB76FB76B869286158
:103838000023BA681C4928465FF01DFAACE7082047
:1038480011F0EAFD7B686FF300036FF341036FF338
:1038580082036FF3C5031A46012363F3881210230A
:1038680063F352226FF3DE426FF3DF727A6005462C
:1038780078B1C31804D00F4A426184618A22C261B8
:103888003BB104233B7600237B76BB76FB76B86995
:10389800286100237A68044928465FF0ECF996E726
:1038A8006FF0004C1AE700BF341A0020D03F002008
:1038B800280200204830070038400020D43F00206C
:1038C800C83F0020CCCE0700CC3F0020D83F0020C6
:1038D800BCF1080F01DD484B8B6101F11C0300208E
:1038E80006E007F1180E1EF800E003F801EB0130BE
:1038F8000128F6D9FFE66FF01B0301E7082011F055
:103908008BFD6FF3000A6FF3410A6FF3820A6FF3BE
:10391800C50A012363F3881A102363F3522A6FF34D
:10392800DE4A6FF3DF7A054678B1C31804D0334A0C
:10393800426184618E22C2613BB104233B7700233C
:103948007B77BB77FB77F8692861002352462C49BF
:1039580028465FF090F9FCE607F6883207F68C31C6
:1039680028480EF013FA804600283FF4FEAE244B98
:103978001B6813F0070F08D1404080F311884FF0FF
:10398800030002DF4FF00008EFE6082011F044FDC5
:103998006FF3000B6FF3410B6FF3820B6FF3C50BE3
:1039A800012363F3881B102363F3522B6FF3DE4B61
:1039B8006FF3DF7B044680B1C31805D00F4A42611C
:1039C800C0F818809522C2613BB104233B770023DD
:1039D8007B77BB77FB77F869206100235A46084953
:1039E80020465FF048F9C7E7D7F8841B064B1868EC
:1039F80001F0FCFCBEE600BF5C3107004830070060
:103A0800341A002028020020C83F002010B92C4B8F
:103A18001860704710B582B0B7EE000A4BF68033D5
:103A280082B2274927480EF00DFD044650B1264BB7
:103A38001B6813F0070F0CD1404080F311884FF03A
:103A4800030002DF1E4B1B68602B35D8002002B034
:103A580010BD082011F0E0FC00226FF300026FF3A4
:103A680041026FF382026FF3C502012363F38812E8
:103A7800102363F352226FF3DE426FF3DF72844642
:103A8800A0B1C31804D0114941618461AF21C1615B
:103A980063B104238DF8043000238DF805308DF8C8
:103AA80006308DF807300198CCF81000002306493D
:103AB80060465FF0E0F8BFE76FF00B00C7E700BFB4
:103AC800D43F0020D83F0020341A00204830070097
:103AD800F0B58BB008AFFFF75BFDA64B93F86430E9
:103AE800002B43D0A44B93F86430002B00F0D78010
:103AF800A24B1A6900920FCB04F0AAFA04460028D8
:103B080000F0AE819E4B1B6813F0070F00F09D81FB
:103B18006D4600233B7102237B7188B0AC4615F1DA
:103B2800100200F068810E2022B1042802DD954BB6
:103B3800CCF8143000233B7002237B70002A00F07D
:103B48005D81082802DD904BCCF818300CF11C037D
:103B58000021012900F2528101F1080606EB070E47
:103B68001EF808EC03F801EB0131F2E781480EF08A
:103B7800E5F904460028B5D0814B1B6813F0070F00
:103B88004FD06E4600233B7102237B7188B03546C7
:103B980016F1100212D00E201AB1042801DD794B5B
:103BA8006B6100233B7002237B70A2B1082801DD02
:103BB800764BAB6105F11C0300210AE06FF0004071
:103BC800EAE701F1080CBC441CF808CC03F801CB67
:103BD80001310129F5D90D282FDD0E2342B103212A
:103BE800397100217971B9710121F97178682861F9
:103BF80000216FF300016FF341016FF382016FF34E
:103C0800C501012060F38811C3F3090363F352214E
:103C18006FF3DE416FF3DF710023594811F0B2FFF3
:103C2800B546574B1B6813F0070F09D1404080F386
:103C380011884FF0030002DF54E76FF01B03CDE754
:103C4800082011F0E9FB00226FF300026FF3410234
:103C58006FF382026FF3C502012363F38812102306
:103C680063F352226FF3DE426FF3DF72054680B1D1
:103C7800C31805D046494161846140F21D11C161F4
:103C88003BB104233B7100237B71BB71FB717868E6
:103C9800286100233A4928465EF0EDFFC6E736481A
:103CA8000EF04CF9044600283FF422AF344B1B6851
:103CB80013F0070F4FD06E4600233B7102237B7130
:103CC80088B0354616F1100212D00E201AB1042819
:103CD80001DD2C4B6B6100233B7002237B70A2B18A
:103CE800082801DD2B4BAB6105F11C0300210AE01C
:103CF8006FF00040EAE701F1080CBC441CF808CC5E
:103D080003F801CB01310129F5D90D282FDD0E2348
:103D180042B10321397100217971B9710121F97119
:103D28007868286100216FF300016FF341016FF398
:103D380082016FF3C501012060F38811C3F3090301
:103D480063F352216FF3DE416FF3DF7100230C48F8
:103D580011F018FFB5460A4B1B6813F0070F1BD16B
:103D6800404080F311884FF0030002DFC0E66FF097
:103D78001B03CDE7900200202802002038400020D5
:103D8800341A0020CCCE0700A43107006C3107009C
:103D98004830070088310700082011F03DFB002259
:103DA8006FF300026FF341026FF382026FF3C502F3
:103DB800012363F38812102363F352226FF3DE4268
:103DC8006FF3DF72054680B1C31805D0AD49416174
:103DD80084614FF49171C1613BB104233B710023AD
:103DE8007B71BB71FB71786828610023A64928465E
:103DF8005EF041FFB4E76FF0004095E60D285CDD0A
:103E08000E234AB10321397100217971B971012159
:103E1800F9717868CCF8100000216FF300016FF396
:103E280041016FF382016FF3C501012060F388112E
:103E3800C3F3090363F352216FF3DE416FF3DF71BC
:103E48000023914811F09EFEAD468F4B1B6813F07E
:103E5800070F35D1404080F311884FF0030002DF8F
:103E68008A4B01221A741B791BB1894B1B68002BE2
:103E780055D00BF081FC044658B1834B1B6813F0F6
:103E8800070F40F0A180404080F311884FF00300F5
:103E980002DF804803F02AFB044658B17A4B1B68BE
:103EA80013F0070F40F0BF80404080F311884FF0B7
:103EB800030002DF0C37BD46F0BD6FF01B03A0E71F
:103EC800082011F0A9FA00226FF300026FF34102F3
:103ED8006FF382026FF3C502012363F38812102384
:103EE80063F352226FF3DE426FF3DF72054680B14F
:103EF800C31805D06349416184614FF49371C1616E
:103F08003BB104233B7100237B71BB71FB71786863
:103F1800286100235C4928465EF0ADFE9AE700223E
:103F28000023CDE90623002304930322039202937E
:103F380001930093584B41F64C525849584840F069
:103F480077FA534B1860574940F03EF8044600286A
:103F58008FD04D4B1B6813F0070F06D1404080F3FC
:103F680011884FF0030002DF83E7082011F054FAAC
:103F780000226FF300026FF341026FF382026FF3C6
:103F8800C502012363F38812102363F352226FF3EF
:103F9800DE426FF3DF72054680B1C31805D0394998
:103FA8004161846140F23111C1613BB104233B712D
:103FB80000237B71BB71FB7178682861002332494B
:103FC80028465EF058FEC9E7082011F025FA0022BD
:103FD8006FF300026FF341026FF382026FF3C502C1
:103FE800012363F38812102363F352226FF3DE4236
:103FF8006FF3DF72054680B1C31805D021494161CE
:10400800846140F23911C1613BB104233B71002343
:104018007B71BB71FB717868286100231A492846B7
:104028005EF029FE2FE7082011F0F6F900226FF361
:1040380000026FF341026FF382026FF3C50201239E
:1040480063F38812102363F352226FF3DE426FF397
:10405800DF72054680B1C31805D00A494161846101
:104068004FF49E71C1613BB104233B7100237B7106
:10407800BB71FB71786828610023034928465EF00C
:10408800FAFD11E748300700341A002038400020B4
:104098004C40002028020020B9350000D8D7002065
:1040A80058210020BC31070010B50446FFF710FD69
:1040B800034A082120465FF0D3F9002010BD00BF55
:1040C800C4310700B0B584B002AFB04B1B7C93BBC2
:1040D800AF4B1B6813F0060F00F02281062011F089
:1040E8009BF900226FF300026FF341026FF3820223
:1040F8006FF3C502022363F38812082363F3522285
:104108006FF3DE426FF3DF72844670B110F1100373
:1041180001D0A049416143B102233B7100237B7167
:10412800BB71FB717868CCF8100000239849604691
:104138005EF0A1FDF4E00BF055FB044650B1944B42
:104148001B6813F0070F45D1404080F311884FF0EA
:10415800030002DF03F038FA044650B18C4B1B68A9
:1041680013F0070F65D1404080F311884FF003002A
:1041780002DF864B1A6900920FCB03F047FE044614
:10418800002800F0C480824B1B6813F0070F00F072
:10419800B3806D4600233B7102237B7188B00DF11B
:1041A800080C1CF1100273D00E2022B1042802DD85
:1041B800794BCCF8143000233B7002237B70002A23
:1041C80073D0082802DD754BCCF818300CF11C03AD
:1041D800002168E0082011F01FF900226FF30002A7
:1041E8006FF341026FF382026FF3C502012363F399
:1041F8008812102363F352226FF3DE426FF3DF72EB
:10420800054680B1C31805D065494161846140F213
:104218004F11C1613BB104233B7100237B71BB711A
:10422800FB71786828610023594928465EF023FD10
:104238008AE7082011F0F0F800226FF300026FF30C
:1042480041026FF382026FF3C502012363F3881200
:10425800102363F352226FF3DE426FF3DF720546D9
:1042680080B1C31805D04E49416184614FF4A971EA
:10427800C1613BB104233B7100237B71BB71FB71AE
:10428800786828610023424928465EF0F4FC6AE712
:104298006FF0004089E701F1080EBE441EF808ECF3
:1042A80003F801EB01310129F5D90D283BDD0E2377
:1042B8004AB10321397100217971B9710121F9716C
:1042C8007868CCF8100000216FF300016FF341010A
:1042D8006FF382016FF3C501012060F38811C3F306
:1042E800090363F352216FF3DE416FF3DF7100239B
:1042F800274811F047FCAD46254B1B6813F0070F04
:1043080014D1404080F311884FF0030002DF1F4BA7
:1043180000221A7423480DF071FD23480DF06EFD3C
:104328000837BD46B0BD6FF01B03C1E7082011F088
:1043380073F800226FF300026FF341026FF38202F9
:104348006FF3C502012363F38812102363F352222B
:104358006FF3DE426FF3DF72054680B1C31805D0F4
:104368000F49416184614FF4AB71C1613BB10423D2
:104378003B7100237B71BB71FB7178682861002356
:10438800034928465EF077FCBBE700BF38400020B1
:10439800341A0020DC310700CCCE0700F8310700C2
:1043A80048300700280200209002002010B504467B
:1043B800FFF788FE034A082120465FF051F80020E5
:1043C80010BD00BF1032070010B586B000220023D0
:1043D800CDE9002304AA05A921480DF07BFC38B9D2
:1043E800044605A91E480DF0A9FC204606B010BDDC
:1043F8001C4B1B6813F0060F02D16FF08B04F4E717
:10440800062011F009F800226FF300026FF3410251
:104418006FF382026FF3C502022363F38812082345
:1044280063F352226FF3DE426FF3DF72044688B102
:1044380010F1100301D00C4941615BB102238DF8E2
:104448000C3000238DF80D308DF80E308DF80F30BC
:10445800039820610023034920465EF00CFCCCE75A
:1044680028020020341A00202832070010B582B034
:1044780003F0C2F858B10446424B1B6813F0070F0B
:1044880018D1404080F311884FF0030002DF0AF092
:104498001BF90BF0B7F9044650B13A4B1B6813F0FF
:1044A800070F3BD1404080F311884FF0030002DF33
:1044B80002B010BD082010F0AFFF00226FF3000219
:1044C8006FF341026FF382026FF3C502012363F3B6
:1044D8008812102363F352226FF3DE426FF3DF7208
:1044E8008446A8B1C31805D02749416184614FF4B7
:1044F800BC71C16163B104238DF8043000238DF8C9
:1045080005308DF806308DF807300198CCF810008A
:1045180000231C4960465EF0AEFBB2E7082010F0AD
:104528007BFF00226FF300026FF341026FF38202F8
:104538006FF3C502012363F38812102363F3522239
:104548006FF3DE426FF3DF728446A8B1C31805D05B
:104558000D494161846140F27B11C16163B104235B
:104568008DF8043000238DF805308DF806308DF86D
:1045780007300198CCF810000023024960465EF02D
:104588007AFB8FE7341A002048300700014B187077
:10459800704700BFB8190020944B1B78002B40F0DF
:1045A8002281B0B582B000AF914B1B68002B3BD184
:1045B8008F4B4FF47A721A608D4B1C68002C6BD0AD
:1045C8008C4B1B6803F00703022B38D8884B1868FC
:1045D800FFF71CFA0446002800F0CF80854B1B68C3
:1045E80013F0070F00F0BE806D4600233B710223D5
:1045F8007B7188B0EC461CF110027FD00E2022B1EE
:10460800042802DD7C4BCCF8143000233B700223D5
:104618007B70002A7FD0082802DD784BCCF8183050
:104628000CF11C03002174E0B3F57A6F03D3704BCF
:1046380000221A60C0E75B006D4A1360BCE70820DF
:1046480010F0EAFE00226FF300026FF341026FF3ED
:1046580082026FF3C502032363F388120C2363F30A
:1046680052226FF3DE426FF3DF72054670B110F12C
:10467800100302D06249416184613BB103233B715D
:1046880000237B71BB71FB7178682861002359494D
:1046980028465EF0F0FA99E7564B1B6803F00703CB
:1046A800022B93D9062010F0B7FE00226FF3000208
:1046B8006FF341026FF382026FF3C502032363F3C2
:1046C8008812082363F352226FF3DE426FF3DF721E
:1046D800044668B110F1100301D04A4941613BB169
:1046E80002233B7100237B71BB71FB7178682061E9
:1046F8000023404920465EF0BEFA67E76FF00040AD
:104708007DE701F1080EBE441EF808EC03F801EB42
:1047180001310129F5D90D2833DD0E234AB10321D2
:10472800397100217971B9710121F9717868CCF872
:10473800100000216FF300016FF341016FF3820154
:104748006FF3C501012060F38811C3F3090363F314
:1047580052216FF3DE416FF3DF710023254811F01A
:1047680011FAAD46234B1B6813F0070F0CD14040DC
:1047780080F311884FF0030002DF00200837BD46A0
:10478800B0BD6FF01B03C9E7082010F045FE0022FA
:104798006FF300026FF341026FF382026FF3C502F9
:1047A800012363F38812102363F352226FF3DE426E
:1047B8006FF3DF72054680B1C31805D01249416115
:1047C80084614FF48071C1613BB104233B710023C4
:1047D8007B71BB71FB717868286100230549284605
:1047E8005EF049FAC3E70020704700BFB8190020FF
:1047F800905F0020481B0020CCCE07002C33070018
:10480800043307001C3307004830070010B584B094
:104818006B4683E803009DF804305BB9009CA31E37
:10482800042B00F22981DFE813F078003F003C00F8
:10483800B100EC00AC4B1B6813F0060F01D104B0BB
:1048480010BD062010F0E8FD00226FF300026FF3A0
:1048580041026FF382026FF3C502022363F38812E9
:10486800082363F352226FF3DE426FF3DF720446CC
:1048780088B110F1100301D09C4941615BB102235A
:104888008DF80C3000238DF80D308DF80E308DF832
:104898000F30039820610023934920465EF0EBF91E
:1048A800CDE707F0EDFFCAE707F01EFF0028C6D0E6
:1048B8008D4B1B6813F0060FC1D0062010F0ACFD1D
:1048C80000226FF300026FF341026FF382026FF36D
:1048D800C502022363F38812082363F352226FF39D
:1048E800DE426FF3DF72044688B110F1100301D085
:1048F8007F4941615BB102238DF80C3000238DF8AC
:104908000D308DF80E308DF80F300398206100239C
:10491800754920465EF0AFF991E707F029FF0028B6
:104928008DD0714B1B6813F0060F88D0062010F04D
:1049380073FD00226FF300026FF341026FF38202EE
:104948006FF3C502022363F38812082363F352222C
:104958006FF3DE426FF3DF72044688B110F1100383
:1049680001D0644941615BB102238DF80C3000230A
:104978008DF80D308DF80E308DF80F3003982061CA
:104988000023594920465EF076F958E707F034FFCE
:1049980000283FF454AF544B1B6813F0060F3FF444
:1049A8004EAF062010F038FD00226FF300026FF3BF
:1049B80041026FF382026FF3C502022363F3881288
:1049C800082363F352226FF3DE426FF3DF7204466B
:1049D80088B110F1100301D0474941615BB102234E
:1049E8008DF80C3000238DF80D308DF80E308DF8D1
:1049F8000F300398206100233B4920465EF03BF9C5
:104A08001DE7FFF7C9FD00283FF419AF364B1B68B7
:104A180013F0060F3FF413AF062010F0FDFC002240
:104A28006FF300026FF341026FF382026FF3C50266
:104A3800022363F38812082363F352226FF3DE42E2
:104A48006FF3DF72044688B110F1100301D02B49CF
:104A580041615BB102238DF80C3000238DF80D30D5
:104A68008DF80E308DF80F300398206100231E4911
:104A780020465EF000F9E2E61B4B1B6813F0060FB8
:104A88003FF4DDAE082010F0C7FC00226FF30002EF
:104A98006FF341026FF382026FF3C502022363F3DF
:104AA80088120C2363F352226FF3DE426FF3DF7236
:104AB800844698B110F1100302D011494161846114
:104AC80063B103238DF80C3000238DF80D308DF879
:104AD8000E308DF80F300398CCF8100000230249EF
:104AE80060465EF0C8F8AAE6481B00204C33070071
:104AF80064330700803307009C330700B433070092
:104B0800CC33070010B584B001283DD004460228F4
:104B180000F08A80002800F0D680894B1B6813F0CB
:104B2800060F34D0082010F077FC00226FF3000243
:104B38006FF341026FF382026FF3C502022363F33E
:104B480088120C2363F352226FF3DE426FF3DF7295
:104B5800844698B110F1100302D07A49416184610A
:104B680063B103238DF80C3000238DF80D308DF8D8
:104B78000E308DF80F300398CCF8100000237049E0
:104B880060465EF078F802E06F4B1B780BB904B012
:104B980010BDFEF79DFF0020FFF7F8FC02200BF088
:104BA80089FA04460028F2D0654B1B6813F0070FFA
:104BB80006D1404080F311884FF0030002DFE6E79A
:104BC800082010F029FC00226FF300026FF3410265
:104BD8006FF382026FF3C502012363F38812102377
:104BE80063F352226FF3DE426FF3DF728446A8B19B
:104BF800C31805D05549416184614FF4B171C16151
:104C080063B104238DF80C3000238DF80D308DF836
:104C18000E308DF80F300398CCF810000023484967
:104C280060465EF028F8C4E7474B1B78012BAED0EE
:104C38000120FFF7ABFCFFF745FA02200BF0D8F98B
:104C480004460028A3D03E4B1B6813F0070F06D17B
:104C5800404080F311884FF0030002DF97E70820F7
:104C680010F0DAFB00226FF300026FF341026FF3DA
:104C780082026FF3C502012363F38812102363F3E2
:104C880052226FF3DE426FF3DF728446A8B1C31875
:104C980005D02E494161846140F27111C16163B14F
:104CA80004238DF80C3000238DF80D308DF80E306C
:104CB8008DF80F300398CCF8100000232049604687
:104CC8005DF0D9FFC4E702A901A85CF0FAFB00284F
:104CD8003FF45DAF1A4B1B6813F0060F3FF457AF54
:104CE800062010F099FB00226FF300026FF34102D7
:104CF8006FF382026FF3C502022363F3881208235D
:104D080063F352226FF3DE426FF3DF72044688B119
:104D180010F1100301D00E4941615BB102238DF8F7
:104D28000C3000238DF80D308DF80E308DF80F30D3
:104D3800039820610023024920465DF09CFF26E786
:104D4800481B002008340700B81900204830070025
:104D5800F03307002DE9F04F89B002AF81460C46C9
:104D680090461E4602F0E4FD804D2D781DB11C379B
:104D7800BD46BDE8F08F824600237B6107F10C0237
:104D880007F110017A480DF001F8054650B1794B4A
:104D98001B6813F0070F5CD1404080F311884FF077
:104DA800030002DF3B69042B1FD9724B1B6813F009
:104DB800060F7DD100220023CDE900233A1D394694
:104DC8006B480CF087FF054658B16A4B1B6813F017
:104DD800070F40F09980404080F311884FF003009E
:104DE80002DF394662480CF0A9FF0022002307F1D0
:104DF80014015F480CF056FE0546002800F00081BB
:104E08005C4B1B6813F0070F00F0EF80EB460023A4
:104E18003B7202237B7288B00DF1080C1CF1100262
:104E280000F0A1800E2022B1042802DD524BCCF8FC
:104E3800143000233B7102237B71002A00F0AE80FE
:104E4800082802DD4D4BCCF818300CF11C0300216A
:104E5800A2E0082010F0E0FA00226FF300026FF3DE
:104E680041026FF382026FF3C502012363F38812D4
:104E7800102363F352226FF3DE426FF3DF7284462E
:104E880080B1C31804D03E49416185618821C16160
:104E980043B104233B7200237B72BB72FB72B86878
:104EA800CCF810000023334960465DF0E4FE73E758
:104EB800062010F0B1FA00226FF300026FF34102EE
:104EC8006FF382026FF3C502022363F3881208238B
:104ED80063F352226FF3DE426FF3DF72054668B167
:104EE80010F1100301D0274941613BB102233B7205
:104EF80000237B72BB72FB72B868286100231D49CE
:104F080028465DF0B8FE55E7082010F085FA002223
:104F18006FF300026FF341026FF382026FF3C50271
:104F2800012363F38812102363F352226FF3DE42E6
:104F38006FF3DF72844680B1C31804D01049416111
:104F480085619521C16143B104233B7200237B72C3
:104F5800BB72FB72B868CCF81000002305496046A4
:104F68005DF089FE37E76FF000405CE7B819002074
:104F7800F8020020481B0020CCCE07003C34070074
:104F8800483007002834070001F1180EBE441EF807
:104F980014EC03F801EB01310129F5D90D2870DD76
:104FA8000E234AB10321397200217972B9720121A5
:104FB800F972B868CCF8100000216FF300016FF3A4
:104FC80041016FF382016FF3C501012060F388117D
:104FD800C3F3090363F352216FF3DE416FF3DF710B
:104FE8000023AC4810F0CEFDDD46AA4B1B6813F039
:104FF800070F49D1404080F311884FF0030002DFCA
:10500800FB2C70D82246494678696CF0C6FB7B6950
:1050180083F8FF80C3F8FB40C3F80061C3F804A11C
:105028004FF4847207F114019B480CF065FD0446A7
:1050380000283FF49CAE974B1B6813F0070F00F055
:1050480019816E4600233B7202237B7288B002AD41
:1050580015F1100200F0DB800E201AB1042801DDE2
:105068008E4B6B6100233B7102237B71002A00F099
:10507800DB80082801DD8A4BAB6105F11C030021A8
:10508800D0E06FF01B038CE7082010F0C5F9002270
:105098006FF300026FF341026FF382026FF3C502F0
:1050A800012363F38812102363F352226FF3DE4265
:1050B8006FF3DF72844680B1C31804D07949416127
:1050C80085619B21C16143B104233B7200237B723C
:1050D800BB72FB72B868CCF8100000236D496046BB
:1050E8005DF0C9FD86E76B4B1B6813F0070F4FD0C7
:1050F8006D4600233B7202237B7288B002AC14F128
:10510800100212D00E201AB1042801DD634B63612E
:1051180000233B7102237B71A2B1082801DD624B99
:10512800A36104F11C0300210AE06FF00040EAE7E4
:1051380001F118063E4416F8146C03F8016B0131AE
:105148000129F5D90D282FDD0E2342B1032139722B
:1051580000217972B9720121F972B86820610021C1
:105168006FF300016FF341016FF382016FF3C50123
:10517800012060F38811C3F3090363F352216FF32D
:10518800DE416FF3DF710023424810F0FBFCAD46AF
:10519800404B1B6813F0070F09D1404080F311887A
:1051A8004FF0030002DFE2E56FF01B03CDE70820B4
:1051B80010F032F900226FF300026FF341026FF32F
:1051C80082026FF3C502012363F38812102363F38D
:1051D80052226FF3DE426FF3DF72044688B1C318C0
:1051E80006D0304941616FF00B0181619E21C16198
:1051F8003BB104233B7200237B72BB72FB72B8681D
:1052080020610023234920465DF035FDC5E76FF096
:10521800004022E701F1180CBC441CF814CC03F838
:1052280001CB01310129F5D90D282FDD0E2342B11B
:105238000321397200217972B9720121F972B868B3
:10524800286100216FF300016FF341016FF38201C0
:105258006FF3C501012060F38811C3F3090363F3F9
:1052680052216FF3DE416FF3DF710023094810F01C
:1052780089FCB546074B1B6813F0070F16D1404051
:1052880080F311884FF0030002DF70E56FF01B0315
:10529800CDE700BF481B0020F8020020CCCE070055
:1052A800783407004830070058340700082010F009
:1052B800B3F800226FF300026FF341026FF382022A
:1052C8006FF3C502012363F38812102363F352229C
:1052D8006FF3DE426FF3DF72054678B1C31804D06E
:1052E800094941618461AB21C1613BB104233B722F
:1052F80000237B72BB72FB72B868286100230349E4
:1053080028465DF0B8FCBAE748300700481B002083
:1053180070B586B0002305931BE000232A462D496B
:1053280020465DF0A8FC404080F311884FF0030050
:1053380002DF059890F8FF30D0F80021D0F8FB1074
:10534800D0F80441009401F011FE05A922480CF0A0
:10535800F5FC4FF0FF324FF0FF33CDE9002304AAEC
:1053680005A91D480CF0B6FC06460028E1D0194BEB
:105378001B6813F0070FD6D0082010F04DF86FF314
:1053880000056FF341056FF382056FF3C50501232F
:1053980063F38815102363F352256FF3DE456FF32B
:1053A800DF7504460028B8D0C31804D00B4A426100
:1053B8008661B822C261002BAFD004238DF80C306F
:1053C80000238DF80D308DF80E308DF80F300398CE
:1053D8002061A2E7481B0020F8020020483007009F
:1053E800014B1878704700BFB8190020244B1B7870
:1053F80003B1704710B582B007F086FA044640B191
:10540800204B1B68834204D01F4B1B6813F0060F08
:1054180003D11C4B1C6002B010BD08200FF0FCFF2C
:1054280000226FF300026FF341026FF382026FF301
:10543800C502022363F388120C2363F352226FF32D
:10544800DE426FF3DF72844698B110F1100302D088
:105458000E494161846163B103238DF80430002350
:105468008DF805308DF806308DF807300198CCF8A6
:1054780010000023044960465DF0FDFBC9E700BF4A
:10548800B8190020945F0020481B002090340700C2
:1054980010B584B04FF0FF324FF0FF3301A809F088
:1054A8002DF89DF8044044B1012C0BD104AB13E94D
:1054B8000300FFF7ABF904B010BD9DF80800FFF733
:1054C80021FBF8E71B4B1B6813F0060FF3D00820ED
:1054D8000FF0A2FF00226FF300026FF341026FF397
:1054E80082026FF3C502022363F388120C2363F36D
:1054F80052226FF3DE426FF3DF72844698B110F1E7
:10550800100302D00C494161846163B103238DF813
:10551800003000238DF801308DF802308DF803300B
:105528000098CCF810000023024960465DF0A3FB08
:10553800C1E700BF481B0020BC340700B0B58AB0E3
:1055480008AFB1480CF0FAFC002864D00446AF4B11
:105558001B6813F0070F53D06D4600233B710223DD
:105568007B7188B0AC4615F110021ED00E2022B116
:10557800042802DDA64BCCF8143000233B7002232C
:105588007B70AAB1082802DDA24BCCF818300CF1C8
:105598001C03002101290BD801F1080EBE441EF896
:1055A80008EC03F801EB0131F4E76FF00040DEE7A7
:1055B8000D2840F38C800E234AB103213971002154
:1055C8007971B9710121F9717868CCF8100000215E
:1055D8006FF300016FF341016FF382016FF3C501AF
:1055E800012060F38811C3F3090363F352216FF3B9
:1055F800DE416FF3DF710023844810F0C3FAAD4633
:10560800824B1B6813F0070F64D1404080F3118868
:105618004FF0030002DF00220023CDE90623002318
:105628000493042203920293019300937A4B4FF45C
:1056380080527A497A483EF0FBFE7A4B18607A49E4
:105648003EF0C2FC044650B1704B1B6813F0070FC4
:105658006FD1404080F311884FF0030002DF734898
:105668005BF031FF0446002800F0C780674B1B68D9
:1056780013F0070F00F0B6806D4600233B7102233C
:105688007B7188B0AC4615F1100200F081800E20C5
:1056980022B1042802DD5E4BCCF8143000233B70A5
:1056A80002237B70002A76D0082802DD604BCCF8F4
:1056B80018300CF11C03002101296CD801F1080EE7
:1056C800BE441EF808EC03F801EB0131F4E76FF073
:1056D8001B0371E708200FF09FFE00226FF3000202
:1056E8006FF341026FF382026FF3C502012363F384
:1056F8008812102363F352226FF3DE426FF3DF72D6
:10570800054680B1C31805D04A49416184614FF408
:10571800D471C1613BB104233B7100237B71BB7120
:10572800FB71786828610023384928465DF0A3FAA0
:105738006BE708200FF070FE00226FF300026FF392
:1057480041026FF382026FF3C502012363F38812EB
:10575800102363F352226FF3DE426FF3DF720546C4
:1057680080B1C31805D03349416184614FF4D871C1
:10577800C1613BB104233B7100237B71BB71FB7199
:10578800786828610023214928465DF074FA60E7AB
:105798006FF000407CE70D2833DD0E234AB103216A
:1057A800397100217971B9710121F9717868CCF8E2
:1057B800100000216FF300016FF341016FF38201C4
:1057C8006FF3C501012060F38811C3F3090363F384
:1057D80052216FF3DE416FF3DF7100230B4810F0A5
:1057E800D1F9AD46094B1B6813F0070F24D140408F
:1057F80080F311884FF0030002DF00200837BD4610
:10580800B0BD6FF01B03C9E7F8020020481B002059
:10581800CCCE0700E83407001953000028F5002013
:1058280060220020985F0020083507005D4D0000C9
:10583800183507004830070008200FF0EDFD00225A
:105848006FF300026FF341026FF382026FF3C50238
:10585800012363F38812102363F352226FF3DE42AD
:105868006FF3DF72054680B1C31805D00A4941615C
:10587800846140F2B311C1613BB104233B71002341
:105888007B71BB71FB717868286100230349284646
:105898005DF0F1F9ABE700BF48300700481B002076
:1058A8004AF27A73984228BF184648F6E27398423B
:1058B80038BF1846044B93F8683D1BB14FF050238E
:1058C800C3F85C05704700BF449A00200C4B93F85E
:1058D800803133B90A4B012283F88021036000200C
:1058E8007047074B93F881313BB9054B012283F888
:1058F8008121C0330360002070476FF00B007047B0
:10590800FC640020074B984203D0074B984204D010
:105918007047002283F880217047C03B002283F83B
:105928008121F5E7FC640020BC650020034B0022C0
:1059380083F8802183F88121704700BFFC64002030
:1059480008B50021034B19704FF4707202486BF0D0
:105958005EFF08BDA9D700208466002008B502486C
:105968003FF090FE08BD00BF6003002090B583B0F3
:1059780000AF4F4B93F85C3D83422DD04C4B002237
:10598800A3F85E2D83F85C0D4A4B1B6803F00703F0
:10599800022B40F28680484B53F820106C463A712F
:1059A80002237B7188B0EC461CF1100245D00E2012
:1059B80022B1042802DD414BCCF8143000233B709F
:1059C80002237B70002A45D0082801DDCCF8181086
:1059D8000CF11C0300213BE0364B1B6813F0060F4B
:1059E8005FD006200FF018FD00226FF300026FF35E
:1059F80041026FF382026FF3C502022363F3881238
:105A0800082363F352226FF3DE426FF3DF7204461A
:105A180068B110F1100301D0294941613BB102235B
:105A28003B7100237B71BB71FB7178682061002397
:105A3800204920465DF01FF933E06FF00040B7E7DA
:105A480001F1080EBE441EF808EC03F801EB013121
:105A58000129F5D90D2827DD0E234AB10321397113
:105A680000217971B9710121F9717868CCF81000B9
:105A780000216FF300016FF341016FF382016FF3AF
:105A8800C501032060F38811C3F3090363F35221AE
:105A98006FF3DE416FF3DF710023064810F072F8F0
:105AA800A5460C37BD4690BD6FF01B03D5E700BF78
:105AB800449A00202C1A0020743B07007835070010
:105AC8004035070010B5564B93F85C3D032B07D8BB
